DET99610638390AGTDSTI ISSUE               EMDA70989856549240919FFVVUSD200000003040000000000000000000000000000000000               0000000000000          0000000730100000000000000000000000     I                               00000103410000000000000     
DET99610638390AGTDSTI ISSUE               EMDA70989856559240919FFVVUSD200000003040000000000000000000000000000000000               0000000000000          0000000730100000000000000000000000     I                               00000103410000000000000     
DET04410638390AGTDSTI ISSUE               EMDA70989857089240919FFVVUSD200000003350000000000000000000000000000000000               0000000000000          0000000116300000000000000000000000     I                               00000045130000000000000     
DET04410638390AGTDSTI ISSUE               EMDA70989857099240919FFVVUSD200000003350000000000000000000000000000000000               0000000000000          0000000116300000000000000000000000     I                               00000045130000000000000     
DET07510638390AGTDSTI ISSUE               EMDA70989857129240919FFVVUSD200000009660000000000000000000000000000000000               0000000000000          0000000682350000000000000000000000     I                               00000164835000000000000     
DET00110638390AGTDSTI ISSUE               EMDA70989857319240919FFVVUSD200000014750000000000000000000000000000000000               0000000000000          0000000252000000000000000000000000     I                               00000172700000000000000     
DET01410638390AGTDSTI ISSUE               EMDA70989857329240919FFVVUSD200000015510000000000000000000000000000000000               0000000000000          0000000596500000000000000000000000     I                               00000214750000000000000     
DET01410638390AGTDSTI ISSUE               EMDA70989857349240919FFVVUSD200000015510000000000000000000000000000000000               0000000000000          0000000596500000000000000000000000     I                               00000214750000000000000     
DET07510638390AGTDSTI ISSUE               EMDA70989857449240919FFVVUSD200000018510000000000000000000000000000000000               0000000000000          0000000229000000000000000000000000     I                               00000208000000000000000     
DET11410638390AGTDSTI ISSUE               EMDA70989857499240919FFVVUSD200000006160000000000000000000000000000000000               0000000000000          0000000074650000000000000000000000     I                               00000069065000000000000     
DET07510638390AGTDSTI ISSUE               EMDA70992070009240919FFVVUSD200000007710000000000000000000000000000000000               0000000000000          0000000736900000000000000000000000     I                               00000150790000000000000     
DET07410638390AGTDSTI ISSUE               EMDA70992070019240919FFVVUSD200000010770000000000000000000000000000000000               0000000000000          0000000470500000000000000000000000     I                               00000154750000000000000     
DET07510638390AGTDSTI ISSUE               EMDA70992070049240919FFVVUSD200000006850000000000000000000000000000000000               0000000000000          0000000811100000000000000000000000     I                               00000149610000000000000     
DET04410638390AGTDSTI ISSUE               EMDA70992070059240919FFVVUSD200000002230000000000000000000000000000000000               0000000000000          0000000117000000000000000000000000     I                               00000034000000000000000     
DET00110638390AGTDSTI ISSUE               EMDA70992070089240919FFVVUSD200000011620000000000000000000000000000000000               0000000000000          0000000353980000000000000000000000     I                               00000151598000000000000     
DET00110638390AGTDSTI ISSUE               EMDA70992070099240919FFVVUSD200000011620000000000000000000000000000000000               0000000000000          0000000353980000000000000000000000     I                               00000151598000000000000     
DET05710638390AGTDSTI ISSUE               EMDA70992070189240919FFVVUSD200000004370000000000000000000000000000000000               0000000000000          0000000072200000000000000000000000     I                               00000050920000000000000     
DET12710638390AGTDSTI ISSUE               EMDA70992070339240919FFVVUSD200000005360000000000000000000000000000000000               0000000000000          0000000130300000000000000000000000     I                               00000066630000000000000     
DET99610638390AGTDSTI ISSUE               EMDA70992070369240919FFVVUSD200000005200000000000000000000000000000000000               0000000000000          0000000737600000000000000000000000     I                               00000125760000000000000     
DET99610638390AGTDSTI ISSUE               EMDA70992070379240919FFVVUSD200000005200000000000000000000000000000000000               0000000000000          0000000737600000000000000000000000     I                               00000125760000000000000     
DET04510638390AGTDSTI ISSUE               EMDA70992070429240919FFVVUSD200000008660000000000000000000000000000000000               0000000000000          0000000288780000000000000000000000     I                               00000115478000000000000     
DET04510638390AGTDSTI ISSUE               EMDA70992070439240919FFVVUSD200000008660000000000000000000000000000000000               0000000000000          0000000288780000000000000000000000     I                               00000115478000000000000     
DET01610638390AGTDSTI ISSUE               EMDA70992070449240919FFVVUSD200000011860000000000000000000000000000000000               0000000000000          0000000246300000000000000000000000     I                               00000143230000000000000     
DET01610638390AGTDSTI ISSUE               EMDA70992070459240919FFVVUSD200000011860000000000000000000000000000000000               0000000000000          0000000246300000000000000000000000     I                               00000143230000000000000     
DET01610638390AGTDSTI ISSUE               EMDA70992070469240919FFVVUSD200000011860000000000000000000000000000000000               0000000000000          0000000246300000000000000000000000     I                               00000143230000000000000     
DET01610638390AGTDSTI ISSUE               EMDA70992070479240919FFVVUSD200000011860000000000000000000000000000000000               0000000000000          0000000246300000000000000000000000     I                               00000143230000000000000     
DET07510638390AGTDSTI ISSUE               EMDA70992070529240919FFVVUSD200000003170000000000000000000000000000000000               0000000000000          0000000719900000000000000000000000     I                               00000103690000000000000     
DET07510638390AGTDSTI ISSUE               EMDA70992070539240919FFVVUSD200000003170000000000000000000000000000000000               0000000000000          0000000719900000000000000000000000     I                               00000103690000000000000     
DET07510638390AGTDSTI ISSUE               EMDA70992070549240919FFVVUSD200000003170000000000000000000000000000000000               0000000000000          0000000719900000000000000000000000     I                               00000103690000000000000     
DET01610638390AGTDSTI ISSUE               EMDA70992070599240919FFVVUSD200000015750000000000000000000000000000000000               0000000000000          0000000269100000000000000000000000     I                               00000184410000000000000     
DET99610638390AGTDSTI ISSUE               EMDA70992070689240919FFVVUSD200000006140000000000000000000000000000000000               0000000000000          0000000770250000000000000000000000     I                               00000138425000000000000     
DET00110638390AGTDSTI ISSUE               EMDA70992070699240919FFVVUSD200000011000000000000000000000000000000000000               0000000000000          0000000225700000000000000000000000     I                               00000132570000000000000     
DET00110638390AGTDSTI ISSUE               EMDA70992070709240919FFVVUSD200000011000000000000000000000000000000000000               0000000000000          0000000225700000000000000000000000     I                               00000132570000000000000     
DET07510638390AGTDSTI ISSUE               EMDA70992070719240919FFVVUSD200000013620000000000000000000000000000000000               0000000000000          0000000868600000000000000000000000     I                               00000223060000000000000     
DET07510638390AGTDSTI ISSUE               EMDA70992070729240919FFVVUSD200000013620000000000000000000000000000000000               0000000000000          0000000868600000000000000000000000     I                               00000223060000000000000     
DET04410638390AGTDSTI ISSUE               EMDA70992070739240919FFVVUSD200000009550000000000000000000000000000000000               0000000000000          0000000239380000000000000000000000     I                               00000119438000000000000     
DET04410638390AGTDSTI ISSUE               EMDA70992070749240919FFVVUSD200000009550000000000000000000000000000000000               0000000000000          0000000239380000000000000000000000     I                               00000119438000000000000     
DET04410638390AGTDSTI ISSUE               EMDA70992070759240919FFVVUSD200000009550000000000000000000000000000000000               0000000000000          0000000239380000000000000000000000     I                               00000119438000000000000     
DET04410638390AGTDSTI ISSUE               EMDA70992070769240919FFVVUSD200000009550000000000000000000000000000000000               0000000000000          0000000239380000000000000000000000     I                               00000119438000000000000     
DET05510638390AGTDSTI ISSUE               EMDA70992070779240919FFVVUSD200000008420000000000000000000000000000000000               0000000000000          0000000493400000000000000000000000     I                               00000133540000000000000     
DET05510638390AGTDSTI ISSUE               EMDA70992070789240919FFVVUSD200000008420000000000000000000000000000000000               0000000000000          0000000493400000000000000000000000     I                               00000133540000000000000     
DET05510638390AGTDSTI ISSUE               EMDA70992070799240919FFVVUSD200000008420000000000000000000000000000000000               0000000000000          0000000493400000000000000000000000     I                               00000133540000000000000     
DET05510638390AGTDSTI ISSUE               EMDA70992070809240919FFVVUSD200000008420000000000000000000000000000000000               0000000000000          0000000493400000000000000000000000     I                               00000133540000000000000     
DET04410638390AGTDSTI ISSUE               EMDA70992070819240919FFVVUSD200000003360000000000000000000000000000000000               0000000000000          0000000110300000000000000000000000     I                               00000044630000000000000     
DET04410638390AGTDSTI ISSUE               EMDA70992070829240919FFVVUSD200000003360000000000000000000000000000000000               0000000000000          0000000110300000000000000000000000     I                               00000044630000000000000     
DET00610638390AGTDSTI ISSUE               EMDA70992070849240919FFVVUSD200000001798900000000000000000000000000000000               0000000000000          0000000028590000000000000000000000     I                               00000020848000000000000     
DET00610638390AGTDSTI ISSUE               EMDA70992070859240919FFVVUSD200000001798900000000000000000000000000000000               0000000000000          0000000028590000000000000000000000     I                               00000020848000000000000     
DET00610638390AGTDSTI ISSUE               EMDA70992070869240919FFVVUSD200000001798900000000000000000000000000000000               0000000000000          0000000028590000000000000000000000     I                               00000020848000000000000     
DET00610638390AGTDSTI ISSUE               EMDA70992070879240919FFVVUSD200000001798900000000000000000000000000000000               0000000000000          0000000028590000000000000000000000     I                               00000020848000000000000     
DET00610638390AGTDSTI ISSUE               EMDA70992070889240919FFVVUSD200000001798900000000000000000000000000000000               0000000000000          0000000028590000000000000000000000     I                               00000020848000000000000     
DET00610638390AGTDSTI ISSUE               EMDA70992070899240919FFVVUSD200000001798900000000000000000000000000000000               0000000000000          0000000028590000000000000000000000     I                               00000020848000000000000     
DET00610638390AGTDSTI ISSUE               EMDA70992070909240919FFVVUSD200000001798900000000000000000000000000000000               0000000000000          0000000028590000000000000000000000     I                               00000020848000000000000     
DET04510638390AGTDSTI ISSUE               EMDA70992070919240919FFVVUSD200000005180000000000000000000000000000000000               0000000000000          0000000232670000000000000000000000     I                               00000075067000000000000     
DET04510638390AGTDSTI ISSUE               EMDA70992070929240919FFVVUSD200000005180000000000000000000000000000000000               0000000000000          0000000232670000000000000000000000     I                               00000075067000000000000     
DET00610638390AGTDSTI ISSUE               EMDA70992070939240919FFVVUSD200000001798900000000000000000000000000000000               0000000000000          0000000028590000000000000000000000     I                               00000020848000000000000     
DET00610638390AGTDSTI ISSUE               EMDA70992070949240919FFVVUSD200000001798900000000000000000000000000000000               0000000000000          0000000028590000000000000000000000     I                               00000020848000000000000     
DET00610638390AGTDSTI ISSUE               EMDA70992070959240919FFVVUSD200000001798900000000000000000000000000000000               0000000000000          0000000028590000000000000000000000     I                               00000020848000000000000     
DET00610638390AGTDSTI ISSUE               EMDA70992070969240919FFVVUSD200000007650000000000000000000000000000000000               0000000000000          0000000202300000000000000000000000     I                               00000096730000000000000     
DET05510638390AGTDSTI ISSUE               EMDA70992070979240919FFVVUSD200000000810000000000000000000000000000000000               0000000000000          0000000068800000000000000000000000     I                               00000014980000000000000     
DET04410638390AGTDSTI ISSUE               EMDA70992071029240919FFVVUSD200000001360000000000000000000000000000000000               0000000000000          0000000085900000000000000000000000     I                               00000022190000000000000     
DET04410638390AGTDSTI ISSUE               EMDA70992071039240919FFVVUSD200000001360000000000000000000000000000000000               0000000000000          0000000085900000000000000000000000     I                               00000022190000000000000     
DET04410638390AGTDSTI ISSUE               EMDA70992071099240919FFVVUSD200000002400000000000000000000000000000000000               0000000000000          0000000135980000000000000000000000     I                               00000037598000000000000     
DET04410638390AGTDSTI ISSUE               EMDA70992071109240919FFVVUSD200000002400000000000000000000000000000000000               0000000000000          0000000135980000000000000000000000     I                               00000037598000000000000     
DET04410638390AGTDSTI ISSUE               EMDA70992071119240919FFVVUSD200000001360000000000000000000000000000000000               0000000000000          0000000010300000000000000000000000     I                               00000014630000000000000     
DET04410638390AGTDSTI ISSUE               EMDA70992071129240919FFVVUSD200000001360000000000000000000000000000000000               0000000000000          0000000010300000000000000000000000     I                               00000014630000000000000     
DET00110638390AGTDSTI ISSUE               EMDA70992071139240919FFVVUSD200000012000000000000000000000000000000000000               0000000000000          0000000247300000000000000000000000     I                               00000144730000000000000     
DET00110638390AGTDSTI ISSUE               EMDA70992071159240919FFVVUSD200000008100000000000000000000000000000000000               0000000000000          0000000205400000000000000000000000     I                               00000101540000000000000     
DET00110638390AGTDSTI ISSUE               EMDA70992071169240919FFVVUSD200000008100000000000000000000000000000000000               0000000000000          0000000205400000000000000000000000     I                               00000101540000000000000     
DET00110638390AGTDSTI ISSUE               EMDA70992071179240919FFVVUSD200000008100000000000000000000000000000000000               0000000000000          0000000205400000000000000000000000     I                               00000101540000000000000     
DET00110638390AGTDSTI ISSUE               EMDA70992071189240919FFVVUSD200000008100000000000000000000000000000000000               0000000000000          0000000205400000000000000000000000     I                               00000101540000000000000     
DET93010638390AGTDSTI ISSUE               EMDA70992071359240919FFVVUSD200000007260000000000000000000000000000000000               0000000000000          0000000199500000000000000000000000     I                               00000092550000000000000     
DET93010638390AGTDSTI ISSUE               EMDA70992071369240919FFVVUSD200000007260000000000000000000000000000000000               0000000000000          0000000199500000000000000000000000     I                               00000092550000000000000     
DET04410638390AGTDSTI ISSUE               EMDA70992071379240919FFVVUSD200000002650000000000000000000000000000000000               0000000000000          0000000135000000000000000000000000     I                               00000040000000000000000     
DET00110638390AGTDSTI ISSUE               EMDA70992071419240919FFVVUSD200000008600000000000000000000000000000000000               0000000000000          0000000208900000000000000000000000     I                               00000106890000000000000     
DET04410638390AGTDSTI ISSUE               EMDA70992071479240919FFVVUSD200000008100000000000000000000000000000000000               0000000000000          0000000205400000000000000000000000     I                               00000101540000000000000     
DET04410638390AGTDSTI ISSUE               EMDA70992071489240919FFVVUSD200000008100000000000000000000000000000000000               0000000000000          0000000205400000000000000000000000     I                               00000101540000000000000     
DET04410638390AGTDSTI ISSUE               EMDA70992071649240919FFVVUSD200000001300000000000000000000000000000000000               0000000000000          0000000081230000000000000000000000     I                               00000021123000000000000     
DET12710638390AGTDSTI ISSUE               EMDA70992071679240919FFVVUSD200000004750000000000000000000000000000000000               0000000000000          0000000124000000000000000000000000     I                               00000059900000000000000     
DET12710638390AGTDSTI ISSUE               EMDA70992071689240919FFVVUSD200000004750000000000000000000000000000000000               0000000000000          0000000124000000000000000000000000     I                               00000059900000000000000     
DET01610638390AGTDSTI ISSUE               EMDA70992071699240919FFVVUSD200000009750000000000000000000000000000000000               0000000000000          0000000231600000000000000000000000     I                               00000120660000000000000     
DET04410638390AGTDSTI ISSUE               EMDA70992071779240919FFVVUSD200000008300000000000000000000000000000000000               0000000000000          0000000206800000000000000000000000     I                               00000103680000000000000     
DET04510638390AGTDSTI ISSUE               EMDA70992071809240919FFVVUSD200000007490000000000000000000000000000000000               0000000000000          0000000202650000000000000000000000     I                               00000095165000000000000     
DET04510638390AGTDSTI ISSUE               EMDA70992071819240919FFVVUSD200000007490000000000000000000000000000000000               0000000000000          0000000202650000000000000000000000     I                               00000095165000000000000     
DET04510638390AGTDSTI ISSUE               EMDA70992071939240919FFVVUSD200000004180000000000000000000000000000000000               0000000000000          0000000257380000000000000000000000     I                               00000067538000000000000     
DET04510638390AGTDSTI ISSUE               EMDA70992071949240919FFVVUSD200000004180000000000000000000000000000000000               0000000000000          0000000257380000000000000000000000     I                               00000067538000000000000     
DET00110638390AGTDSTI ISSUE               EMDA70992072319240919FFVVUSD200000013440000000000000000000000000000000000               0000000000000          0000000242800000000000000000000000     I                               00000158680000000000000     
DET13410638390AGTDSTI ISSUE               EMDA70992072329240919FFVVUSD200000012640000000000000000000000000000000000               0000000000000          0000000226900000000000000000000000     I                               00000149090000000000000     
DET13410638390AGTDSTI ISSUE               EMDA70992072339240919FFVVUSD200000012640000000000000000000000000000000000               0000000000000          0000000226900000000000000000000000     I                               00000149090000000000000     
DET12710638390AGTDSTI ISSUE               EMDA71221514239240919FFVVUSD200000004880000000000000000000000000000000000               0000000000000          0000000126500000000000000000000000     I                               00000061450000000000000     
DET04410638390AGTDSTI ISSUE               EMDA71221514249240919FFVVUSD200000012860000000000000000000000000000000000               0000000000000          0000000272380000000000000000000000     I                               00000155838000000000000     
DET04410638390AGTDSTI ISSUE               EMDA71221514259240919FFVVUSD200000012860000000000000000000000000000000000               0000000000000          0000000272380000000000000000000000     I                               00000155838000000000000     
DET00110638390AGTDSTI ISSUE               EMDA71221514269240919FFVVUSD200000008100000000000000000000000000000000000               0000000000000          0000000205400000000000000000000000     I                               00000101540000000000000     
DET00110638390AGTDSTI ISSUE               EMDA71221514279240919FFVVUSD200000008100000000000000000000000000000000000               0000000000000          0000000205400000000000000000000000     I                               00000101540000000000000     
DET00110638390AGTDSTI ISSUE               EMDA71221514289240919FFVVUSD200000008100000000000000000000000000000000000               0000000000000          0000000205400000000000000000000000     I                               00000101540000000000000     
DET04410638390AGTDSTI ISSUE               EMDA71221514299240919FFVVUSD200000007990000000000000000000000000000000000               0000000000000          0000000238280000000000000000000000     I                               00000103728000000000000     
DET04410638390AGTDSTI ISSUE               EMDA71221514309240919FFVVUSD200000007990000000000000000000000000000000000               0000000000000          0000000238280000000000000000000000     I                               00000103728000000000000     
DET07510638390AGTDSTI ISSUE               EMDA71221514419240919FFVVUSD200000003020000000000000000000000000000000000               0000000000000          0000000694100000000000000000000000     I                               00000099610000000000000     
DET23510638390AGTDSTI ISSUE               EMDA71221514459240919FFVVUSD200000013200000000000000000000000000000000000               0000000000000          0000000558200000000000000000000000     I                               00000187820000000000000     
DET23510638390AGTDSTI ISSUE               EMDA71221514469240919FFVVUSD200000013200000000000000000000000000000000000               0000000000000          0000000558200000000000000000000000     I                               00000187820000000000000     
DET04410638390AGTDSTI ISSUE               EMDA71221514499240919FFVVUSD200000002900000000000000000000000000000000000               0000000000000          0000000106800000000000000000000000     I                               00000039680000000000000     
DET04410638390AGTDSTI ISSUE               EMDA71221514509240919FFVVUSD200000002900000000000000000000000000000000000               0000000000000          0000000106800000000000000000000000     I                               00000039680000000000000     
DET04410638390AGTDSTI ISSUE               EMDA71221514519240919FFVVUSD200000002900000000000000000000000000000000000               0000000000000          0000000106800000000000000000000000     I                               00000039680000000000000     
DET07510638390AGTDSTI ISSUE               EMDA71221514569240919FFVVUSD200000002020000000000000000000000000000000000               0000000000000          0000000687100000000000000000000000     I                               00000088910000000000000     
DET17610638390AGTDSTI ISSUE               EMDA71221514629240919FFVVUSD200000003300000000000000000000000000000000000               0000000000000          0000000144000000000000000000000000     I                               00000047400000000000000     
DET17610638390AGTDSTI ISSUE               EMDA71221514639240919FFVVUSD200000003300000000000000000000000000000000000               0000000000000          0000000144000000000000000000000000     I                               00000047400000000000000     
DET17610638390AGTDSTI ISSUE               EMDA71221514649240919FFVVUSD200000003300000000000000000000000000000000000               0000000000000          0000000144000000000000000000000000     I                               00000047400000000000000     
DET12510638390AGTDSTI ISSUE               EMDA71221514739240919FFVVUSD200000002880000000000000000000000000000000000               0000000000000          0000000172100000000000000000000000     I                               00000046010000000000000     
DET12510638390AGTDSTI ISSUE               EMDA71221514749240919FFVVUSD200000002880000000000000000000000000000000000               0000000000000          0000000172100000000000000000000000     I                               00000046010000000000000     
DET07510638390AGTDSTI ISSUE               EMDA71221514759240919FFVVUSD200000005380000000000000000000000000000000000               0000000000000          0000000608200000000000000000000000     I                               00000114620000000000000     
DET07510638390AGTDSTI ISSUE               EMDA71221514769240919FFVVUSD200000005380000000000000000000000000000000000               0000000000000          0000000608200000000000000000000000     I                               00000114620000000000000     
DET07510638390AGTDSTI ISSUE               EMDA71221514779240919FFVVUSD200000005380000000000000000000000000000000000               0000000000000          0000000608200000000000000000000000     I                               00000114620000000000000     
DET07510638390AGTDSTI ISSUE               EMDA71221514789240919FFVVUSD200000004730000000000000000000000000000000000               0000000000000          0000000706100000000000000000000000     I                               00000117910000000000000     
DET04410638390AGTDSTI ISSUE               EMDA71221514859240919FFVVUSD200000009100000000000000000000000000000000000               0000000000000          0000000212400000000000000000000000     I                               00000112240000000000000     
DET12710638390AGTDSTI ISSUE               EMDA71221514869240919FFVVUSD200000005920000000000000000000000000000000000               0000000000000          0000000223780000000000000000000000     I                               00000081578000000000000     
DET12710638390AGTDSTI ISSUE               EMDA71221514879240919FFVVUSD200000005920000000000000000000000000000000000               0000000000000          0000000223780000000000000000000000     I                               00000081578000000000000     
DET04410638390AGTDSTI ISSUE               EMDA71221515019240919FFVVUSD200000009460000000000000000000000000000000000               0000000000000          0000000152900000000000000000000000     I                               00000109890000000000000     
DET00110638390AGTDSTI ISSUE               EMDA71221515049240919FFVVUSD200000008100000000000000000000000000000000000               0000000000000          0000000205400000000000000000000000     I                               00000101540000000000000     
DET00110638390AGTDSTI ISSUE               EMDA71221515059240919FFVVUSD200000008100000000000000000000000000000000000               0000000000000          0000000205400000000000000000000000     I                               00000101540000000000000     
DET00110638390AGTDSTI ISSUE               EMDA71221515069240919FFVVUSD200000008100000000000000000000000000000000000               0000000000000          0000000205400000000000000000000000     I                               00000101540000000000000     
DET00110638390AGTDSTI ISSUE               EMDA71221515079240919FFVVUSD200000045020000000000000000000000000000000000               0000000000000          0000000894800000000000000000000000     I                               00000539680000000000000     
DET00110638390AGTDSTI ISSUE               EMDA71221515089240919FFVVUSD200000045020000000000000000000000000000000000               0000000000000          0000000894800000000000000000000000     I                               00000539680000000000000     
DET99610638390AGTDSTI ISSUE               EMDA71221515109240919FFVVUSD200000007350000000000000000000000000000000000               0000000000000          0000000792850000000000000000000000     I                               00000152785000000000000     
DET99610638390AGTDSTI ISSUE               EMDA71221515269240919FFVVUSD200000007530000000000000000000000000000000000               0000000000000          0000000763000000000000000000000000     I                               00000151600000000000000     
DET99610638390AGTDSTI ISSUE               EMDA71221515279240919FFVVUSD200000007530000000000000000000000000000000000               0000000000000          0000000763000000000000000000000000     I                               00000151600000000000000     
DET99610638390AGTDSTI ISSUE               EMDA71221515289240919FFVVUSD200000007530000000000000000000000000000000000               0000000000000          0000000763000000000000000000000000     I                               00000151600000000000000     
DET99610638390AGTDSTI ISSUE               EMDA71221515299240919FFVVUSD200000007530000000000000000000000000000000000               0000000000000          0000000763000000000000000000000000     I                               00000151600000000000000     
DET04410638390AGTDSTI ISSUE               EMDA71221515329240919FFVVUSD200000007670000000000000000000000000000000000               0000000000000          0000000032300000000000000000000000     I                               00000079930000000000000     
DET04410638390AGTDSTI ISSUE               EMDA71221515339240919FFVVUSD200000007670000000000000000000000000000000000               0000000000000          0000000032300000000000000000000000     I                               00000079930000000000000     
DET12710638390AGTDSTI ISSUE               EMDA71221515449240919FFVVUSD200000003260000000000000000000000000000000000               0000000000000          0000000139200000000000000000000000     I                               00000046520000000000000     
DET12710638390AGTDSTI ISSUE               EMDA71221515459240919FFVVUSD200000003260000000000000000000000000000000000               0000000000000          0000000139200000000000000000000000     I                               00000046520000000000000     
DET12710638390AGTDSTI ISSUE               EMDA71221515469240919FFVVUSD200000003260000000000000000000000000000000000               0000000000000          0000000139200000000000000000000000     I                               00000046520000000000000     
DET12710638390AGTDSTI ISSUE               EMDA71221515479240919FFVVUSD200000003260000000000000000000000000000000000               0000000000000          0000000139200000000000000000000000     I                               00000046520000000000000     
DET12710638390AGTDSTI ISSUE               EMDA71221515489240919FFVVUSD200000003260000000000000000000000000000000000               0000000000000          0000000032300000000000000000000000     I                               00000035830000000000000     
DET12710638390AGTDSTI ISSUE               EMDA71221515499240919FFVVUSD200000003260000000000000000000000000000000000               0000000000000          0000000032300000000000000000000000     I                               00000035830000000000000     
DET12710638390AGTDSTI ISSUE               EMDA71221515509240919FFVVUSD200000003260000000000000000000000000000000000               0000000000000          0000000032300000000000000000000000     I                               00000035830000000000000     
DET12710638390AGTDSTI ISSUE               EMDA71221515519240919FFVVUSD200000003260000000000000000000000000000000000               0000000000000          0000000032300000000000000000000000     I                               00000035830000000000000     
DET07510638390AGTDSTI ISSUE               EMDA71221515559240919FFVVUSD200000007200000000000000000000000000000000000               0000000000000          0000000759000000000000000000000000     I                               00000147900000000000000     
DET07510638390AGTDSTI ISSUE               EMDA71221515569240919FFVVUSD200000007200000000000000000000000000000000000               0000000000000          0000000759000000000000000000000000     I                               00000147900000000000000     
DET07510638390AGTDSTI ISSUE               EMDA71221515579240919FFVVUSD200000007200000000000000000000000000000000000               0000000000000          0000000759000000000000000000000000     I                               00000147900000000000000     
DET07510638390AGTDSTI ISSUE               EMDA71221515589240919FFVVUSD200000007200000000000000000000000000000000000               0000000000000          0000000759000000000000000000000000     I                               00000147900000000000000     
DET04410638390AGTDSTI ISSUE               EMDA71221515679240919FFVVUSD200000011600000000000000000000000000000000000               0000000000000          0000000148700000000000000000000000     I                               00000130870000000000000     
DET21710638390AGTDSTI ISSUE               EMDA71221515819240919FFVVUSD200000004820000000000000000000000000000000000               0000000000000          0000000204700000000000000000000000     I                               00000068670000000000000     
DET21710638390AGTDSTI ISSUE               EMDA71221515829240919FFVVUSD200000004820000000000000000000000000000000000               0000000000000          0000000204700000000000000000000000     I                               00000068670000000000000     
DET05510638390AGTDSTI ISSUE               EMDA71221515839240919FFVVUSD200000002800000000000000000000000000000000000               0000000000000          0000000058600000000000000000000000     I                               00000033860000000000000     
DET05510638390AGTDSTI ISSUE               EMDA71221515849240919FFVVUSD200000002800000000000000000000000000000000000               0000000000000          0000000058600000000000000000000000     I                               00000033860000000000000     
DET99610638390AGTDSTI ISSUE               EMDA71221515859240919FFVVUSD200000001700000000000000000000000000000000000               0000000000000          0000000391600000000000000000000000     I                               00000056160000000000000     
DET04510638390AGTDSTI ISSUE               EMDA71221515869240919FFVVUSD200000007950000000000000000000000000000000000               0000000000000          0000000281400000000000000000000000     I                               00000107640000000000000     
DET04510638390AGTDSTI ISSUE               EMDA71221515889240919FFVVUSD200000007950000000000000000000000000000000000               0000000000000          0000000281400000000000000000000000     I                               00000107640000000000000     
DET04510638390AGTDSTI ISSUE               EMDA71221515909240919FFVVUSD200000009020000000000000000000000000000000000               0000000000000          0000000049000000000000000000000000     I                               00000095100000000000000     
DET04510638390AGTDSTI ISSUE               EMDA71221516049240919FFVVUSD200000014050000000000000000000000000000000000               0000000000000          0000000296700000000000000000000000     I                               00000170170000000000000     
DET13910638390AGTDSTI ISSUE               EMDA71221516179240919FFVVUSD200000009950000000000000000000000000000000000               0000000000000          0000000248710000000000000000000000     I                               00000124371000000000000     
DET99610638390AGTDSTI ISSUE               EMDA71221516189240919FFVVUSD200000000270000000000000000000000000000000000               0000000000000          0000000014400000000000000000000000     I                               00000004140000000000000     
DET99610638390AGTDSTI ISSUE               EMDA71221516199240919FFVVUSD200000000270000000000000000000000000000000000               0000000000000          0000000014400000000000000000000000     I                               00000004140000000000000     
DET04410638390AGTDSTI ISSUE               EMDA71221516329240919FFVVUSD200000001900000000000000000000000000000000000               0000000000000          0000000132480000000000000000000000     I                               00000032248000000000000     
DET04410638390AGTDSTI ISSUE               EMDA71221516339240919FFVVUSD200000001900000000000000000000000000000000000               0000000000000          0000000132480000000000000000000000     I                               00000032248000000000000     
DET04410638390AGTDSTI ISSUE               EMDA71221516569240919FFVVUSD200000006120000000000000000000000000000000000               0000000000000          0000000715800000000000000000000000     I                               00000132780000000000000     
DET04410638390AGTDSTI ISSUE               EMDA71221516679240919FFVVUSD200000008220000000000000000000000000000000000               0000000000000          0000000608900000000000000000000000     I                               00000143090000000000000     
DET04410638390AGTDSTI ISSUE               EMDA71221516689240919FFVVUSD200000008220000000000000000000000000000000000               0000000000000          0000000608900000000000000000000000     I                               00000143090000000000000     
DET99610638390AGTDSTI ISSUE               EMDA71221516719240919FFVVUSD200000011920000000000000000000000000000000000               0000000000000          0000000822900000000000000000000000     I                               00000201490000000000000     
DET07510638390AGTDSTI ISSUE               EMDA71221516799240919FFVVUSD200000004830000000000000000000000000000000000               0000000000000          0000000756800000000000000000000000     I                               00000123980000000000000     
DET07510638390AGTDSTI ISSUE               EMDA71221516809240919FFVVUSD200000004830000000000000000000000000000000000               0000000000000          0000000756800000000000000000000000     I                               00000123980000000000000     
DET07510638390AGTDSTI ISSUE               EMDA71221516819240919FFVVUSD200000003690000000000000000000000000000000000               0000000000000          0000000748900000000000000000000000     I                               00000111790000000000000     
DET07510638390AGTDSTI ISSUE               EMDA71221516829240919FFVVUSD200000003690000000000000000000000000000000000               0000000000000          0000000748900000000000000000000000     I                               00000111790000000000000     
DET00110638390AGTDSTI ISSUE               EMDA71221516949240919FFVVUSD200000010170000000000000000000000000000000000               0000000000000          0000000234500000000000000000000000     I                               00000125150000000000000     
DET00110638390AGTDSTI ISSUE               EMDA71221516969240919FFVVUSD200000010170000000000000000000000000000000000               0000000000000          0000000234500000000000000000000000     I                               00000125150000000000000     
DET00110638390AGTDSTI ISSUE               EMDA71221516989240919FFVVUSD200000010170000000000000000000000000000000000               0000000000000          0000000234500000000000000000000000     I                               00000125150000000000000     
DET00110638390AGTDSTI ISSUE               EMDA71221517009240919FFVVUSD200000010170000000000000000000000000000000000               0000000000000          0000000234500000000000000000000000     I                               00000125150000000000000     
DET04410638390AGTDSTI ISSUE               EMDA71221517029240919FFVVUSD200000002890000000000000000000000000000000000               0000000000000          0000000107000000000000000000000000     I                               00000039600000000000000     
DET04410638390AGTDSTI ISSUE               EMDA71221517039240919FFVVUSD200000006620000000000000000000000000000000000               0000000000000          0000000137000000000000000000000000     I                               00000079900000000000000     
DET04410638390AGTDSTI ISSUE               EMDA71221517049240919FFVVUSD200000006620000000000000000000000000000000000               0000000000000          0000000137000000000000000000000000     I                               00000079900000000000000     
DET00110638390AGTDSTI ISSUE               EMDA71221517059240919FFVVUSD200000008100000000000000000000000000000000000               0000000000000          0000000205400000000000000000000000     I                               00000101540000000000000     
DET00110638390AGTDSTI ISSUE               EMDA71221517069240919FFVVUSD200000008100000000000000000000000000000000000               0000000000000          0000000205400000000000000000000000     I                               00000101540000000000000     
DET04410638390AGTDSTI ISSUE               EMDA71221517079240919FFVVUSD200000004300000000000000000000000000000000000               0000000000000          0000000122900000000000000000000000     I                               00000055290000000000000     
DET04410638390AGTDSTI ISSUE               EMDA71221517089240919FFVVUSD200000004300000000000000000000000000000000000               0000000000000          0000000122900000000000000000000000     I                               00000055290000000000000     
DET04410638390AGTDSTI ISSUE               EMDA71221517099240919FFVVUSD200000003230000000000000000000000000000000000               0000000000000          0000000115400000000000000000000000     I                               00000043840000000000000     
DET04410638390AGTDSTI ISSUE               EMDA71221517109240919FFVVUSD200000003230000000000000000000000000000000000               0000000000000          0000000115400000000000000000000000     I                               00000043840000000000000     
DET23010638390AGTDSTI ISSUE               EMDA71221517129240919FFVVUSD200000007700000000000000000000000000000000000               0000000000000          0000000240200000000000000000000000     I                               00000101020000000000000     
DET67510638390AGTDSTI ISSUE               EMDA71221517309240919FFVVUSD200000004190000000000000000000000000000000000               0000000000000          0000000130700000000000000000000000     I                               00000054970000000000000     
DET12710638390AGTDSTI ISSUE               EMDA71221517319240919FFVVUSD200000007910000000000000000000000000000000000               0000000000000          0000000237780000000000000000000000     I                               00000102878000000000000     
DET12710638390AGTDSTI ISSUE               EMDA71221517329240919FFVVUSD200000007910000000000000000000000000000000000               0000000000000          0000000237780000000000000000000000     I                               00000102878000000000000     
DET00610638390AGTDSTI ISSUE               EMDA71221517369240919FFVVUSD200000008840000000000000000000000000000000000               0000000000000          0000000097300000000000000000000000     I                               00000098130000000000000     
DET13910638390AGTDSTI ISSUE               EMDA71221517389240919FFVVUSD200000000690000000000000000000000000000000000               0000000000000          0000000044170000000000000000000000     I                               00000011317000000000000     
DET23010638390AGTDSTI ISSUE               EMDA71221517439240919FFVVUSD200000011860000000000000000000000000000000000               0000000000000          0000000326000000000000000000000000     I                               00000151200000000000000     
DET67510638390AGTDSTI ISSUE               EMDA71221517479240919FFVVUSD200000004190000000000000000000000000000000000               0000000000000          0000000130700000000000000000000000     I                               00000054970000000000000     
DET67510638390AGTDSTI ISSUE               EMDA71221517489240919FFVVUSD200000004190000000000000000000000000000000000               0000000000000          0000000130700000000000000000000000     I                               00000054970000000000000     
DET05510638390AGTDSTI ISSUE               EMDA71223014069240919FFVVUSD200000014790000000000000000000000000000000000               0000000000000          0000000558400000000000000000000000     I                               00000203740000000000000     
DET05510638390AGTDSTI ISSUE               EMDA71223014089240919FFVVUSD200000014790000000000000000000000000000000000               0000000000000          0000000558400000000000000000000000     I                               00000203740000000000000     
DET05510638390AGTDSTI ISSUE               EMDA71223014109240919FFVVUSD200000014790000000000000000000000000000000000               0000000000000          0000000558400000000000000000000000     I                               00000203740000000000000     
DET05510638390AGTDSTI ISSUE               EMDA71223014129240919FFVVUSD200000009920000000000000000000000000000000000               0000000000000          0000000503900000000000000000000000     I                               00000149590000000000000     
DET05510638390AGTDSTI ISSUE               EMDA71223014139240919FFVVUSD200000009920000000000000000000000000000000000               0000000000000          0000000503900000000000000000000000     I                               00000149590000000000000     
DET01610638390AGTDSTI ISSUE               EMDA71223014149240919FFVVUSD200000043010000000000000000000000000000000000               0000000000000          0000000201050000000000000000000000     I                               00000450205000000000000     
DET01610638390AGTDSTI ISSUE               EMDA71223014159240919FFVVUSD200000043010000000000000000000000000000000000               0000000000000          0000000201050000000000000000000000     I                               00000450205000000000000     
DET00110638390AGTDSTI ISSUE               EMDA71223014199240919FFVVUSD200000013450000000000000000000000000000000000               0000000000000          0000000257500000000000000000000000     I                               00000160250000000000000     
DET04410638390AGTDSTI ISSUE               EMDA71223014209240919FFVVUSD200000004690000000000000000000000000000000000               0000000000000          0000000119500000000000000000000000     I                               00000058850000000000000     
DET04410638390AGTDSTI ISSUE               EMDA71223014219240919FFVVUSD200000004690000000000000000000000000000000000               0000000000000          0000000119500000000000000000000000     I                               00000058850000000000000     
DET04510638390AGTDSTI ISSUE               EMDA71223014229240919FFVVUSD200000005900000000000000000000000000000000000               0000000000000          0000000245600000000000000000000000     I                               00000083560000000000000     
DET04510638390AGTDSTI ISSUE               EMDA71223014239240919FFVVUSD200000004940000000000000000000000000000000000               0000000000000          0000000262680000000000000000000000     I                               00000075668000000000000     
DET04410638390AGTDSTI ISSUE               EMDA71223014349240919FFVVUSD200000008300000000000000000000000000000000000               0000000000000          0000000206800000000000000000000000     I                               00000103680000000000000     
DET04410638390AGTDSTI ISSUE               EMDA71223014359240919FFVVUSD200000008300000000000000000000000000000000000               0000000000000          0000000206800000000000000000000000     I                               00000103680000000000000     
DET04410638390AGTDSTI ISSUE               EMDA71223014369240919FFVVUSD200000008300000000000000000000000000000000000               0000000000000          0000000206800000000000000000000000     I                               00000103680000000000000     
DET04410638390AGTDSTI ISSUE               EMDA71223014379240919FFVVUSD200000008300000000000000000000000000000000000               0000000000000          0000000206800000000000000000000000     I                               00000103680000000000000     
DET07410638390AGTDSTI ISSUE               EMDA71223014389240919FFVVUSD200000001500000000000000000000000000000000000               0000000000000          0000000091200000000000000000000000     I                               00000024120000000000000     
DET05510638390AGTDSTI ISSUE               EMDA71223014419240919FFVVUSD200000001020000000000000000000000000000000000               0000000000000          0000000058600000000000000000000000     I                               00000016060000000000000     
DET99610638390AGTDSTI ISSUE               EMDA71223014429240919FFVVUSD200000003640000000000000000000000000000000000               0000000000000          0000000759900000000000000000000000     I                               00000112390000000000000     
DET99610638390AGTDSTI ISSUE               EMDA71223014449240919FFVVUSD200000003640000000000000000000000000000000000               0000000000000          0000000759900000000000000000000000     I                               00000112390000000000000     
DET00110638390AGTDSTI ISSUE               EMDA71223014499240919FFVVUSD200000010300000000000000000000000000000000000               0000000000000          0000000653200000000000000000000000     I                               00000168320000000000000     
DET46010638390AGTDSTI ISSUE               EMDA71223014569240919FFVVUSD200000000990000000000000000000000000000000000               0000000000000          0000000072070000000000000000000000     I                               00000017107000000000000     
DET46010638390AGTDSTI ISSUE               EMDA71223014579240919FFVVUSD200000000990000000000000000000000000000000000               0000000000000          0000000072070000000000000000000000     I                               00000017107000000000000     
DET46010638390AGTDSTI ISSUE               EMDA71223014589240919FFVVUSD200000000990000000000000000000000000000000000               0000000000000          0000000072070000000000000000000000     I                               00000017107000000000000     
DET46010638390AGTDSTI ISSUE               EMDA71223014599240919FFVVUSD200000000990000000000000000000000000000000000               0000000000000          0000000072070000000000000000000000     I                               00000017107000000000000     
DET46010638390AGTDSTI ISSUE               EMDA71223014609240919FFVVUSD200000000990000000000000000000000000000000000               0000000000000          0000000072070000000000000000000000     I                               00000017107000000000000     
DET46010638390AGTDSTI ISSUE               EMDA71223014619240919FFVVUSD200000000990000000000000000000000000000000000               0000000000000          0000000072070000000000000000000000     I                               00000017107000000000000     
DET46010638390AGTDSTI ISSUE               EMDA71223014629240919FFVVUSD200000000990000000000000000000000000000000000               0000000000000          0000000072070000000000000000000000     I                               00000017107000000000000     
DET23010638390AGTDSTI ISSUE               EMDA71223014729240919FFVVUSD200000016710000000000000000000000000000000000               0000000000000          0000000297100000000000000000000000     I                               00000196810000000000000     
DET23010638390AGTDSTI ISSUE               EMDA71223014749240919FFVVUSD200000016710000000000000000000000000000000000               0000000000000          0000000297100000000000000000000000     I                               00000196810000000000000     
DET23010638390AGTDSTI ISSUE               EMDA71223014769240919FFVVUSD200000016710000000000000000000000000000000000               0000000000000          0000000297100000000000000000000000     I                               00000196810000000000000     
DET23010638390AGTDSTI ISSUE               EMDA71223014789240919FFVVUSD200000016710000000000000000000000000000000000               0000000000000          0000000297100000000000000000000000     I                               00000196810000000000000     
DET23010638390AGTDSTI ISSUE               EMDA71223014809240919FFVVUSD200000016710000000000000000000000000000000000               0000000000000          0000000297100000000000000000000000     I                               00000196810000000000000     
DET23010638390AGTDSTI ISSUE               EMDA71223014829240919FFVVUSD200000016710000000000000000000000000000000000               0000000000000          0000000297100000000000000000000000     I                               00000196810000000000000     
DET23010638390AGTDSTI ISSUE               EMDA71223014849240919FFVVUSD200000016710000000000000000000000000000000000               0000000000000          0000000297100000000000000000000000     I                               00000196810000000000000     
DET04410638390AGTDSTI ISSUE               EMDA71223014899240919FFVVUSD200000012830000000000000000000000000000000000               0000000000000          0000000238500000000000000000000000     I                               00000152150000000000000     
DET04510638390AGTDSTI ISSUE               EMDA71223014909240919FFVVUSD200000012540000000000000000000000000000000000               0000000000000          0000000292100000000000000000000000     I                               00000154610000000000000     
DET04510638390AGTDSTI ISSUE               EMDA71223014919240919FFVVUSD200000012540000000000000000000000000000000000               0000000000000          0000000292100000000000000000000000     I                               00000154610000000000000     
DET04510638390AGTDSTI ISSUE               EMDA71223014929240919FFVVUSD200000012540000000000000000000000000000000000               0000000000000          0000000292100000000000000000000000     I                               00000154610000000000000     
DET04510638390AGTDSTI ISSUE               EMDA71223014939240919FFVVUSD200000012540000000000000000000000000000000000               0000000000000          0000000292100000000000000000000000     I                               00000154610000000000000     
DET04510638390AGTDSTI ISSUE               EMDA71223014949240919FFVVUSD200000012540000000000000000000000000000000000               0000000000000          0000000292100000000000000000000000     I                               00000154610000000000000     
DET04510638390AGTDSTI ISSUE               EMDA71223014959240919FFVVUSD200000012540000000000000000000000000000000000               0000000000000          0000000292100000000000000000000000     I                               00000154610000000000000     
DET04510638390AGTDSTI ISSUE               EMDA71223015019240919FFVVUSD200000010780000000000000000000000000000000000               0000000000000          0000000189800000000000000000000000     I                               00000126780000000000000     
DET04510638390AGTDSTI ISSUE               EMDA71223015029240919FFVVUSD200000010780000000000000000000000000000000000               0000000000000          0000000189800000000000000000000000     I                               00000126780000000000000     
DET07510638390AGTDSTI ISSUE               EMDA71223015069240919FFVVUSD200000006400000000000000000000000000000000000               0000000000000          0000000717700000000000000000000000     I                               00000135770000000000000     
DET23010638390AGTDSTI ISSUE               EMDA71223015099240919FFVVUSD200000009780000000000000000000000000000000000               0000000000000          0000000271000000000000000000000000     I                               00000124900000000000000     
DET99610638390AGTDSTI ISSUE               EMDA71223015149240919FFVVUSD200000002100000000000000000000000000000000000               0000000000000          0000000397000000000000000000000000     I                               00000060700000000000000     
DET07510638390AGTDSTI ISSUE               EMDA71223015159240919FFVVUSD200000000960000000000000000000000000000000000               0000000000000          0000000013100000000000000000000000     I                               00000010910000000000000     
DET07510638390AGTDSTI ISSUE               EMDA71223015169240919FFVVUSD200000000960000000000000000000000000000000000               0000000000000          0000000013100000000000000000000000     I                               00000010910000000000000     
DET07510638390AGTDSTI ISSUE               EMDA71223015179240919FFVVUSD200000000960000000000000000000000000000000000               0000000000000          0000000013100000000000000000000000     I                               00000010910000000000000     
DET13410638390AGTDSTI ISSUE               EMDA71223015189240919FFVVUSD200000007220000000000000000000000000000000000               0000000000000          0000000222980000000000000000000000     I                               00000094498000000000000     
DET13410638390AGTDSTI ISSUE               EMDA71223015199240919FFVVUSD200000007220000000000000000000000000000000000               0000000000000          0000000222980000000000000000000000     I                               00000094498000000000000     
DET23010638390AGTDSTI ISSUE               EMDA71223015209240919FFVVUSD200000016710000000000000000000000000000000000               0000000000000          0000000297100000000000000000000000     I                               00000196810000000000000     
DET04410638390AGTDSTI ISSUE               EMDA71223015229240919FFVVUSD200000003700000000000000000000000000000000000               0000000000000          0000000536800000000000000000000000     I                               00000090680000000000000     
DET04410638390AGTDSTI ISSUE               EMDA71223015249240919FFVVUSD200000003700000000000000000000000000000000000               0000000000000          0000000536800000000000000000000000     I                               00000090680000000000000     
DET12710638390AGTDSTI ISSUE               EMDA71223015269240919FFVVUSD200000004190000000000000000000000000000000000               0000000000000          0000000116000000000000000000000000     I                               00000053500000000000000     
DET12710638390AGTDSTI ISSUE               EMDA71223015379240919FFVVUSD200000002690000000000000000000000000000000000               0000000000000          0000000105500000000000000000000000     I                               00000037450000000000000     
DET12710638390AGTDSTI ISSUE               EMDA71223015389240919FFVVUSD200000002690000000000000000000000000000000000               0000000000000          0000000105500000000000000000000000     I                               00000037450000000000000     
DET12710638390AGTDSTI ISSUE               EMDA71223015399240919FFVVUSD200000002690000000000000000000000000000000000               0000000000000          0000000105500000000000000000000000     I                               00000037450000000000000     
DET12710638390AGTDSTI ISSUE               EMDA71223015409240919FFVVUSD200000002690000000000000000000000000000000000               0000000000000          0000000105500000000000000000000000     I                               00000037450000000000000     
DET05510638390AGTDSTI ISSUE               EMDA71223015509240919FFVVUSD200000000990000000000000000000000000000000000               0000000000000          0000000082100000000000000000000000     I                               00000018110000000000000     
DET05510638390AGTDSTI ISSUE               EMDA71223015519240919FFVVUSD200000000990000000000000000000000000000000000               0000000000000          0000000082100000000000000000000000     I                               00000018110000000000000     
DET00110638390AGTDSTI ISSUE               EMDA71223015679240919FFVVUSD200000008100000000000000000000000000000000000               0000000000000          0000000205400000000000000000000000     I                               00000101540000000000000     
DET00110638390AGTDSTI ISSUE               EMDA71223015689240919FFVVUSD200000008100000000000000000000000000000000000               0000000000000          0000000205400000000000000000000000     I                               00000101540000000000000     
DET12710638390AGTDSTI ISSUE               EMDA71223015799240919FFVVUSD200000003850000000000000000000000000000000000               0000000000000          0000000114200000000000000000000000     I                               00000049920000000000000     
DET12710638390AGTDSTI ISSUE               EMDA71223015809240919FFVVUSD200000003850000000000000000000000000000000000               0000000000000          0000000114200000000000000000000000     I                               00000049920000000000000     
DET12710638390AGTDSTI ISSUE               EMDA71223015819240919FFVVUSD200000003850000000000000000000000000000000000               0000000000000          0000000114200000000000000000000000     I                               00000049920000000000000     
DET12710638390AGTDSTI ISSUE               EMDA71223015829240919FFVVUSD200000003850000000000000000000000000000000000               0000000000000          0000000114200000000000000000000000     I                               00000049920000000000000     
DET04410638390AGTDSTI ISSUE               EMDA71223015839240919FFVVUSD200000006900000000000000000000000000000000000               0000000000000          0000000197600000000000000000000000     I                               00000088760000000000000     
DET04410638390AGTDSTI ISSUE               EMDA71223015849240919FFVVUSD200000006900000000000000000000000000000000000               0000000000000          0000000197600000000000000000000000     I                               00000088760000000000000     
DET04410638390AGTDSTI ISSUE               EMDA71223015859240919FFVVUSD200000005180000000000000000000000000000000000               0000000000000          0000000185600000000000000000000000     I                               00000070360000000000000     
DET04410638390AGTDSTI ISSUE               EMDA71223015869240919FFVVUSD200000005180000000000000000000000000000000000               0000000000000          0000000185600000000000000000000000     I                               00000070360000000000000     
DET04410638390AGTDSTI ISSUE               EMDA71223015959240919FFVVUSD200000005300000000000000000000000000000000000               0000000000000          0000000129900000000000000000000000     I                               00000065990000000000000     
DET04410638390AGTDSTI ISSUE               EMDA71223015969240919FFVVUSD200000005300000000000000000000000000000000000               0000000000000          0000000129900000000000000000000000     I                               00000065990000000000000     
DET12710638390AGTDSTI ISSUE               EMDA71223016239240919FFVVUSD200000002900000000000000000000000000000000000               0000000000000          0000000113100000000000000000000000     I                               00000040310000000000000     
DET12710638390AGTDSTI ISSUE               EMDA71223016249240919FFVVUSD200000002900000000000000000000000000000000000               0000000000000          0000000113100000000000000000000000     I                               00000040310000000000000     
DET04510638390AGTDSTI ISSUE               EMDA71223016259240919FFVVUSD200000013970000000000000000000000000000000000               0000000000000          0000000268850000000000000000000000     I                               00000166585000000000000     
DET04510638390AGTDSTI ISSUE               EMDA71223016269240919FFVVUSD200000013970000000000000000000000000000000000               0000000000000          0000000268850000000000000000000000     I                               00000166585000000000000     
DET99610638390AGTDSTI ISSUE               EMDA71223016279240919FFVVUSD200000006250000000000000000000000000000000000               0000000000000          0000000867400000000000000000000000     I                               00000149240000000000000     
DET99610638390AGTDSTI ISSUE               EMDA71223016289240919FFVVUSD200000003640000000000000000000000000000000000               0000000000000          0000000830500000000000000000000000     I                               00000119450000000000000     
DET99610638390AGTDSTI ISSUE               EMDA71223016299240919FFVVUSD200000003640000000000000000000000000000000000               0000000000000          0000000830500000000000000000000000     I                               00000119450000000000000     
DET99610638390AGTDSTI ISSUE               EMDA71223016309240919FFVVUSD200000003640000000000000000000000000000000000               0000000000000          0000000830500000000000000000000000     I                               00000119450000000000000     
DET67510638390AGTDSTI ISSUE               EMDA71223016319240919FFVVUSD200000009390000000000000000000000000000000000               0000000000000          0000000238180000000000000000000000     I                               00000117718000000000000     
DET67510638390AGTDSTI ISSUE               EMDA71223016329240919FFVVUSD200000009390000000000000000000000000000000000               0000000000000          0000000238180000000000000000000000     I                               00000117718000000000000     
DET04410638390AGTDSTI ISSUE               EMDA71223016339240919FFVVUSD200000004400000000000000000000000000000000000               0000000000000          0000000122100000000000000000000000     I                               00000056210000000000000     
DET04410638390AGTDSTI ISSUE               EMDA71223016349240919FFVVUSD200000004400000000000000000000000000000000000               0000000000000          0000000122100000000000000000000000     I                               00000056210000000000000     
DET67510638390AGTDSTI ISSUE               EMDA71223016359240919FFVVUSD200000001540000000000000000000000000000000000               0000000000000          0000000112200000000000000000000000     I                               00000026620000000000000     
DET67510638390AGTDSTI ISSUE               EMDA71223016369240919FFVVUSD200000002340000000000000000000000000000000000               0000000000000          0000000117800000000000000000000000     I                               00000035180000000000000     
DET00110638390AGTDSTI ISSUE               TKTT70989856579240919FFVVUSD200000009740000000000000000000000000000000000               0000000000000          0000000216900000000000000000000000     I                               00000119090000000000000     
DET00110638390AGTDSTI ISSUE               TKTT70989856589240919FFVVUSD200000009740000000000000000000000000000000000               0000000000000          0000000216900000000000000000000000     I                               00000119090000000000000     
DET00110638390AGTDSTI ISSUE               TKTT70989856599240919FFVVUSD200000007300000000000000000000000000000000000               0000000000000          0000000199800000000000000000000000     I                               00000092980000000000000     
DET00110638390AGTDSTI ISSUE               TKTT70989856609240919FFVVUSD200000007300000000000000000000000000000000000               0000000000000          0000000199800000000000000000000000     I                               00000092980000000000000     
DET13410638390AGTDSTI ISSUE               TKTT70989856619240919FFVVUSD200000006340000000000000000000000000000000000               0000000000000          0000000182800000000000000000000000     I                               00000081680000000000000     
DET00110638390AGTDSTI ISSUE               TKTT70989856629240919FFVVUSD200000010280000000000000000000000000000000000               0000000000000          0000000220700000000000000000000000     I                               00000124870000000000000     
DET00110638390AGTDSTI ISSUE               TKTT70989856639240919FFVVUSD200000010280000000000000000000000000000000000               0000000000000          0000000220700000000000000000000000     I                               00000124870000000000000     
DET00110638390AGTDSTI ISSUE               TKTT70989856649240919FFVVUSD200000010280000000000000000000000000000000000               0000000000000          0000000220700000000000000000000000     I                               00000124870000000000000     
DET00110638390AGTDSTI ISSUE               TKTT70989856659240919FFVVUSD200000010280000000000000000000000000000000000               0000000000000          0000000220700000000000000000000000     I                               00000124870000000000000     
DET00110638390AGTDSTI ISSUE               TKTT70989856669240919FFVVUSD200000003060000000000000000000000000000000000               0000000000000          0000000153840000000000000000000000     I                               00000045984000000000000     
DET00110638390AGTDSTI ISSUE               TKTT70989856679240919FFVVUSD200000004080000000000000000000000000000000000               0000000000000          0000000161360000000000000000000000     I                               00000056936000000000000     
DET00110638390AGTDSTI ISSUE               TKTT70989856689240919FFVVUSD200000004080000000000000000000000000000000000               0000000000000          0000000161360000000000000000000000     I                               00000056936000000000000     
DET04410638390AGTDSTI ISSUE               TKTT70989856749240919FFVVUSD200000003260000000000000000000000000000000000               0000000000000          0000000141000000000000000000000000     I                               00000046700000000000000     
DET04410638390AGTDSTI ISSUE               TKTT70989856759240919FFVVUSD200000039640000000000000000000000000000000000               0000000000000          0000000426200000000000000000000000     I                               00000439020000000000000     
DET04410638390AGTDSTI ISSUE               TKTT70989856769240919FFVVUSD200000039640000000000000000000000000000000000               0000000000000          0000000426200000000000000000000000     I                               00000439020000000000000     
DET07510638390AGTDSTI ISSUE               TKTT70989856839240919FFVVUSD200000014460000000000000000000000000000000000               0000000000000          0000000822000000000000000000000000     I                               00000226800000000000000     
DET07510638390AGTDSTI ISSUE               TKTT70989856859240919FFVVUSD200000014460000000000000000000000000000000000               0000000000000          0000000822000000000000000000000000     I                               00000226800000000000000     
DET07510638390AGTDSTI ISSUE               TKTT70989856879240919FFVVUSD200000010920000000000000000000000000000000000               0000000000000          0000000797300000000000000000000000     I                               00000188930000000000000     
DET07510638390AGTDSTI ISSUE               TKTT70989856899240919FFVVUSD200000010920000000000000000000000000000000000               0000000000000          0000000797300000000000000000000000     I                               00000188930000000000000     
DET07510638390AGTDSTI ISSUE               TKTT70989856919240919FFVVUSD200000010920000000000000000000000000000000000               0000000000000          0000000797300000000000000000000000     I                               00000188930000000000000     
DET05510638390AGTDSTI ISSUE               TKTT70989856939240919FFVVUSD200000011240000000000000000000000000000000000               0000000000000          0000000567800000000000000000000000     I                               00000169180000000000000     
DET05510638390AGTDSTI ISSUE               TKTT70989856959240919FFVVUSD200000011240000000000000000000000000000000000               0000000000000          0000000567800000000000000000000000     I                               00000169180000000000000     
DET05510638390AGTDSTI ISSUE               TKTT70989856979240919FFVVUSD200000011240000000000000000000000000000000000               0000000000000          0000000567800000000000000000000000     I                               00000169180000000000000     
DET05510638390AGTDSTI ISSUE               TKTT70989856999240919FFVVUSD200000011240000000000000000000000000000000000               0000000000000          0000000567800000000000000000000000     I                               00000169180000000000000     
DET05510638390AGTDSTI ISSUE               TKTT70989857019240919FFVVUSD200000008430000000000000000000000000000000000               0000000000000          0000000540200000000000000000000000     I                               00000138320000000000000     
DET04410638390AGTDSTI ISSUE               TKTT70989857039240919FFVVUSD200000000000000000000000000000000000000000000               0000000000000          0000000000000000000000000000000000     I                               00000000000000000000000     
DET04410638390AGTDSTI ISSUE               TKTT70989857049240919FFVVUSD200000000000000000000000000000000000000000000               0000000000000          0000000000000000000000000000000000     I                               00000000000000000000000     
DET04410638390AGTDSTI ISSUE               TKTT70989857059240919FFVVUSD200000000000000000000000000000000000000000000               0000000000000          0000000000000000000000000000000000     I                               00000000000000000000000     
DET04410638390AGTDSTI ISSUE               TKTT70989857069240919FFVVUSD200000000000000000000000000000000000000000000               0000000000000          0000000000000000000000000000000000     I                               00000000000000000000000     
DET04410638390AGTDSTI ISSUE               TKTT70989857079240919FFVVUSD200000000000000000000000000000000000000000000               0000000000000          0000000000000000000000000000000000     I                               00000000000000000000000     
DET04510638390AGTDSTI ISSUE               TKTT70989857109240919FFVVUSD200000008800000000000000000000000000000000000               0000000000000          0000000236900000000000000000000000     I                               00000111690000000000000     
DET04510638390AGTDSTI ISSUE               TKTT70989857119240919FFVVUSD200000008800000000000000000000000000000000000               0000000000000          0000000236900000000000000000000000     I                               00000111690000000000000     
DET04410638390AGTDSTI ISSUE               TKTT70989857219240919FFVVUSD200000001350000000000000000000000000000000000               0000000000000          0000000045250000000000000000000000     I                               00000018025000000000000     
DET04510638390AGTDSTI ISSUE               TKTT70989857239240919FFVVUSD200000009460000000000000000000000000000000000               0000000000000          0000000266700000000000000000000000     I                               00000121270000000000000     
DET04510638390AGTDSTI ISSUE               TKTT70989857249240919FFVVUSD200000009460000000000000000000000000000000000               0000000000000          0000000266700000000000000000000000     I                               00000121270000000000000     
DET23010638390AGTDSTI ISSUE               TKTT70989857259240919FFVVUSD200000009090000000000000000000000000000000000               0000000000000          0000000353130000000000000000000000     I                               00000126213000000000000     
DET23010638390AGTDSTI ISSUE               TKTT70989857279240919FFVVUSD200000007890000000000000000000000000000000000               0000000000000          0000000344730000000000000000000000     I                               00000113373000000000000     
DET93010638390AGTDSTI ISSUE               TKTT70989857299240919FFVVUSD200000002560000000000000000000000000000000000               0000000000000          0000000134300000000000000000000000     I                               00000039030000000000000     
DET93010638390AGTDSTI ISSUE               TKTT70989857309240919FFVVUSD200000001790000000000000000000000000000000000               0000000000000          0000000128900000000000000000000000     I                               00000030790000000000000     
DET04510638390AGTDSTI ISSUE               TKTT70989857339240919FFVVUSD200000003320000000000000000000000000000000000               0000000000000          0000000114400000000000000000000000     I                               00000044640000000000000     
DET99610638390AGTDSTI ISSUE               TKTT70989857359240919FFVVUSD200000000540000000000000000000000000000000000               0000000000000          0000000047600000000000000000000000     I                               00000010160000000000000     
DET99610638390AGTDSTI ISSUE               TKTT70989857369240919FFVVUSD200000000800000000000000000000000000000000000               0000000000000          0000000047600000000000000000000000     I                               00000012760000000000000     
DET12510638390AGTDSTI ISSUE               TKTT70989857379240919FFVVUSD200000000930000000000000000000000000000000000               0000000000000          0000000040500000000000000000000000     I                               00000013350000000000000     
DET12510638390AGTDSTI ISSUE               TKTT70989857389240919FFVVUSD200000000930000000000000000000000000000000000               0000000000000          0000000040500000000000000000000000     I                               00000013350000000000000     
DET07510638390AGTDSTI ISSUE               TKTT70989857399240919FFVVUSD200000001320000000000000000000000000000000000               0000000000000          0000000027000000000000000000000000     I                               00000015900000000000000     
DET07510638390AGTDSTI ISSUE               TKTT70989857409240919FFVVUSD200000001320000000000000000000000000000000000               0000000000000          0000000027000000000000000000000000     I                               00000015900000000000000     
DET04510638390AGTDSTI ISSUE               TKTT70989857419240919FFVVUSD200000003100000000000000000000000000000000000               0000000000000          0000000114400000000000000000000000     I                               00000042440000000000000     
DET99610638390AGTDSTI ISSUE               TKTT70989857429240919FFVVUSD200000000190000000000000000000000000000000000               0000000000000          0000000024800000000000000000000000     I                               00000004380000000000000     
DET99610638390AGTDSTI ISSUE               TKTT70989857439240919FFVVUSD200000000470000000000000000000000000000000000               0000000000000          0000000024800000000000000000000000     I                               00000007180000000000000     
DET07510638390AGTDSTI ISSUE               TKTT70992070069240919FFVVUSD200000000128000000000000000000000000000000000               0000000000000          0000000054200000000000000000000000     I                               00000006700000000000000     
DET07510638390AGTDSTI ISSUE               TKTT70992070079240919FFVVUSD200000000128000000000000000000000000000000000               0000000000000          0000000054200000000000000000000000     I                               00000006700000000000000     
DET07510638390AGTDSTI ISSUE               TKTT70992070109240919FFVVUSD200000005140000000000000000000000000000000000               0000000000000          0000000718900000000000000000000000     I                               00000123290000000000000     
DET07510638390AGTDSTI ISSUE               TKTT70992070119240919FFVVUSD200000005140000000000000000000000000000000000               0000000000000          0000000718900000000000000000000000     I                               00000123290000000000000     
DET07510638390AGTDSTI ISSUE               TKTT70992070129240919FFVVUSD200000005140000000000000000000000000000000000               0000000000000          0000000718900000000000000000000000     I                               00000123290000000000000     
DET07510638390AGTDSTI ISSUE               TKTT70992070139240919FFVVUSD200000003920000000000000000000000000000000000               0000000000000          0000000700800000000000000000000000     I                               00000109280000000000000     
DET04410638390AGTDSTI ISSUE               TKTT70992070219240919FFVVUSD200000000000000000000000000000000000000000000               0000000000000          0000000000000000000000000000000000     I                               00000000000000000000000     
DET04410638390AGTDSTI ISSUE               TKTT70992070349240919FFVVUSD2-0000000216400000000000000000000000000000000               0000000000000          0000000096640000000000000000000000     I                               00000007500000000000000     
DET00110638390AGTDSTI ISSUE               TKTT70992070359240919FFVVUSD200000020800000000000000000000000000000000000               0000000000000          0000000294300000000000000000000000     I                               00000237430000000000000     
DET05510638390AGTDSTI ISSUE               TKTT70992070389240919FFVVUSD200000010930000000000000000000000000000000000               0000000000000          0000000320700000000000000000000000     I                               00000141370000000000000     
DET05710638390AGTDSTI ISSUE               TKTT70992070399240919FFVVUSD200000010540000000000000000000000000000000000               0000000000000          0000000208100000000000000000000000     I                               00000126210000000000000     
DET07510638390AGTDSTI ISSUE               TKTT70992070609240919FFVVUSD200000008560000000000000000000000000000000000               0000000000000          0000000630500000000000000000000000     I                               00000148650000000000000     
DET07510638390AGTDSTI ISSUE               TKTT70992070619240919FFVVUSD200000008560000000000000000000000000000000000               0000000000000          0000000630500000000000000000000000     I                               00000148650000000000000     
DET07510638390AGTDSTI ISSUE               TKTT70992070629240919FFVVUSD200000007610000000000000000000000000000000000               0000000000000          0000000623900000000000000000000000     I                               00000138490000000000000     
DET93010638390AGTDSTI ISSUE               TKTT70992070639240919FFVVUSD200000003360000000000000000000000000000000000               0000000000000          0000000139900000000000000000000000     I                               00000047590000000000000     
DET93010638390AGTDSTI ISSUE               TKTT70992070649240919FFVVUSD200000003360000000000000000000000000000000000               0000000000000          0000000139900000000000000000000000     I                               00000047590000000000000     
DET12710638390AGTDSTI ISSUE               TKTT70992070659240919FFVVUSD200000005700000000000000000000000000000000000               0000000000000          0000000133500000000000000000000000     I                               00000070350000000000000     
DET12710638390AGTDSTI ISSUE               TKTT70992070669240919FFVVUSD200000004900000000000000000000000000000000000               0000000000000          0000000127900000000000000000000000     I                               00000061790000000000000     
DET12710638390AGTDSTI ISSUE               TKTT70992070679240919FFVVUSD200000004900000000000000000000000000000000000               0000000000000          0000000127900000000000000000000000     I                               00000061790000000000000     
DET07510638390AGTDSTI ISSUE               TKTT70992070839240919FFVVUSD2-0000015889000000000000000000000000000000000               0000000000000          0000001838900000000000000000000000     I                               00000025000000000000000     
DET39010638390AGTDSTI ISSUE               TKTT70992070989240919FFVVUSD200000003390000000000000000000000000000000000               0000000000000          0000000034200000000000000000000000     I                               00000037320000000000000     
DET23810638390AGTDSTI ISSUE               TKTT70992070999240919FFVVUSD200000003280000000000000000000000000000000000               0000000000000          0000000040800000000000000000000000     I                               00000036880000000000000     
DET04410638390AGTDSTI ISSUE               TKTT70992071049240919FFVVUSD200000003360000000000000000000000000000000000               0000000000000          0000000110300000000000000000000000     I                               00000044630000000000000     
DET04410638390AGTDSTI ISSUE               TKTT70992071059240919FFVVUSD200000003360000000000000000000000000000000000               0000000000000          0000000110300000000000000000000000     I                               00000044630000000000000     
DET04410638390AGTDSTI ISSUE               TKTT70992071069240919FFVVUSD200000002520000000000000000000000000000000000               0000000000000          0000000104400000000000000000000000     I                               00000035640000000000000     
DET04410638390AGTDSTI ISSUE               TKTT70992071079240919FFVVUSD200000002520000000000000000000000000000000000               0000000000000          0000000104400000000000000000000000     I                               00000035640000000000000     
DET12710638390AGTDSTI ISSUE               TKTT70992071249240919FFVVUSD200000000000000000000000000000000000000000000               0000000000000          0000000000000000000000000000000000     I                               00000000000000000000000     
DET12710638390AGTDSTI ISSUE               TKTT70992071259240919FFVVUSD200000000000000000000000000000000000000000000               0000000000000          0000000000000000000000000000000000     I                               00000000000000000000000     
DET12710638390AGTDSTI ISSUE               TKTT70992071269240919FFVVUSD200000000000000000000000000000000000000000000               0000000000000          0000000000000000000000000000000000     I                               00000000000000000000000     
DET12710638390AGTDSTI ISSUE               TKTT70992071279240919FFVVUSD200000000000000000000000000000000000000000000               0000000000000          0000000000000000000000000000000000     I                               00000000000000000000000     
DET12710638390AGTDSTI ISSUE               TKTT70992071289240919FFVVUSD200000000000000000000000000000000000000000000               0000000000000          0000000000000000000000000000000000     I                               00000000000000000000000     
DET12710638390AGTDSTI ISSUE               TKTT70992071299240919FFVVUSD200000000000000000000000000000000000000000000               0000000000000          0000000000000000000000000000000000     I                               00000000000000000000000     
DET12710638390AGTDSTI ISSUE               TKTT70992071309240919FFVVUSD200000000000000000000000000000000000000000000               0000000000000          0000000000000000000000000000000000     I                               00000000000000000000000     
DET12710638390AGTDSTI ISSUE               TKTT70992071319240919FFVVUSD200000000000000000000000000000000000000000000               0000000000000          0000000000000000000000000000000000     I                               00000000000000000000000     
DET12710638390AGTDSTI ISSUE               TKTT70992071329240919FFVVUSD200000000000000000000000000000000000000000000               0000000000000          0000000000000000000000000000000000     I                               00000000000000000000000     
DET07510638390AGTDSTI ISSUE               TKTT70992071339240919FFVVUSD200000002070000000000000000000000000000000000               0000000000000          0000000738300000000000000000000000     I                               00000094530000000000000     
DET07510638390AGTDSTI ISSUE               TKTT70992071349240919FFVVUSD200000003070000000000000000000000000000000000               0000000000000          0000000745300000000000000000000000     I                               00000105230000000000000     
DET04410638390AGTDSTI ISSUE               TKTT70992071389240919FFVVUSD200000007740000000000000000000000000000000000               0000000000000          0000000236580000000000000000000000     I                               00000101058000000000000     
DET04410638390AGTDSTI ISSUE               TKTT70992071399240919FFVVUSD200000007740000000000000000000000000000000000               0000000000000          0000000236580000000000000000000000     I                               00000101058000000000000     
DET04410638390AGTDSTI ISSUE               TKTT70992071409240919FFVVUSD200000005810000000000000000000000000000000000               0000000000000          0000000223080000000000000000000000     I                               00000080408000000000000     
DET05710638390AGTDSTI ISSUE               TKTT70992071459240919FFVVUSD200000000000000000000000000000000000000000000               0000000000000          0000000000000000000000000000000000     I                               00000000000000000000000     
DET93010638390AGTDSTI ISSUE               TKTT70992071499240919FFVVUSD200000007260000000000000000000000000000000000               0000000000000          0000000199500000000000000000000000     I                               00000092550000000000000     
DET93010638390AGTDSTI ISSUE               TKTT70992071509240919FFVVUSD200000007260000000000000000000000000000000000               0000000000000          0000000199500000000000000000000000     I                               00000092550000000000000     
DET93010638390AGTDSTI ISSUE               TKTT70992071519240919FFVVUSD200000007260000000000000000000000000000000000               0000000000000          0000000199500000000000000000000000     I                               00000092550000000000000     
DET93010638390AGTDSTI ISSUE               TKTT70992071529240919FFVVUSD200000007260000000000000000000000000000000000               0000000000000          0000000199500000000000000000000000     I                               00000092550000000000000     
DET93010638390AGTDSTI ISSUE               TKTT70992071539240919FFVVUSD200000007260000000000000000000000000000000000               0000000000000          0000000199500000000000000000000000     I                               00000092550000000000000     
DET93010638390AGTDSTI ISSUE               TKTT70992071549240919FFVVUSD200000004360000000000000000000000000000000000               0000000000000          0000000179200000000000000000000000     I                               00000061520000000000000     
DET93010638390AGTDSTI ISSUE               TKTT70992071559240919FFVVUSD200000004360000000000000000000000000000000000               0000000000000          0000000179200000000000000000000000     I                               00000061520000000000000     
DET93010638390AGTDSTI ISSUE               TKTT70992071569240919FFVVUSD200000004360000000000000000000000000000000000               0000000000000          0000000179200000000000000000000000     I                               00000061520000000000000     
DET13410638390AGTDSTI ISSUE               TKTT70992071659240919FFVVUSD200000000000000000000000000000000000000000000               0000000000000          0000000000000000000000000000000000     I                               00000000000000000000000     
DET00110638390AGTDSTI ISSUE               TKTT70992071709240919FFVVUSD200000003380000000000000000000000000000000000               0000000000000          0000000055440000000000000000000000     I                               00000039344000000000000     
DET00110638390AGTDSTI ISSUE               TKTT70992071719240919FFVVUSD200000003380000000000000000000000000000000000               0000000000000          0000000055440000000000000000000000     I                               00000039344000000000000     
DET00110638390AGTDSTI ISSUE               TKTT70992071729240919FFVVUSD200000003380000000000000000000000000000000000               0000000000000          0000000055440000000000000000000000     I                               00000039344000000000000     
DET00110638390AGTDSTI ISSUE               TKTT70992071739240919FFVVUSD200000003380000000000000000000000000000000000               0000000000000          0000000055440000000000000000000000     I                               00000039344000000000000     
DET00110638390AGTDSTI ISSUE               TKTT70992071749240919FFVVUSD200000003380000000000000000000000000000000000               0000000000000          0000000055440000000000000000000000     I                               00000039344000000000000     
DET04410638390AGTDSTI ISSUE               TKTT70992071789240919FFVVUSD200000004190000000000000000000000000000000000               0000000000000          0000000116000000000000000000000000     I                               00000053500000000000000     
DET04410638390AGTDSTI ISSUE               TKTT70992071799240919FFVVUSD200000004190000000000000000000000000000000000               0000000000000          0000000116000000000000000000000000     I                               00000053500000000000000     
DET04510638390AGTDSTI ISSUE               TKTT70992071829240919FFVVUSD200000008060000000000000000000000000000000000               0000000000000          0000000260800000000000000000000000     I                               00000106680000000000000     
DET99610638390AGTDSTI ISSUE               TKTT70992071839240919FFVVUSD2-0000005780000000000000000000000000000000000               0000000000000          0000000753000000000000000000000000     I                               00000017500000000000000     
DET00110638390AGTDSTI ISSUE               TKTT70992071849240919FFVVUSD200000028570000000000000000000000000000000000               0000000000000          0000000348700000000000000000000000     I                               00000320570000000000000     
DET00110638390AGTDSTI ISSUE               TKTT70992071859240919FFVVUSD200000028570000000000000000000000000000000000               0000000000000          0000000348700000000000000000000000     I                               00000320570000000000000     
DET00110638390AGTDSTI ISSUE               TKTT70992071869240919FFVVUSD200000028570000000000000000000000000000000000               0000000000000          0000000348700000000000000000000000     I                               00000320570000000000000     
DET00110638390AGTDSTI ISSUE               TKTT70992071879240919FFVVUSD200000021550000000000000000000000000000000000               0000000000000          0000000299600000000000000000000000     I                               00000245460000000000000     
DET23010638390AGTDSTI ISSUE               TKTT70992071889240919FFVVUSD2-0000000753300000000000000000000000000000000               0000000000000          0000000277230000000000000000000000     I                               00000020190000000000000     
DET00110638390AGTDSTI ISSUE               TKTT70992071899240919FFVVUSD200000034070000000000000000000000000000000000               0000000000000          0000000387200000000000000000000000     I                               00000379420000000000000     
DET00110638390AGTDSTI ISSUE               TKTT70992071909240919FFVVUSD200000025680000000000000000000000000000000000               0000000000000          0000000328500000000000000000000000     I                               00000289650000000000000     
DET00110638390AGTDSTI ISSUE               TKTT70992071919240919FFVVUSD200000025680000000000000000000000000000000000               0000000000000          0000000328500000000000000000000000     I                               00000289650000000000000     
DET00110638390AGTDSTI ISSUE               TKTT70992071929240919FFVVUSD200000025680000000000000000000000000000000000               0000000000000          0000000328500000000000000000000000     I                               00000289650000000000000     
DET12710638390AGTDSTI ISSUE               TKTT70992071969240919FFVVUSD200000005810000000000000000000000000000000000               0000000000000          0000000127900000000000000000000000     I                               00000070890000000000000     
DET12710638390AGTDSTI ISSUE               TKTT70992071979240919FFVVUSD200000005810000000000000000000000000000000000               0000000000000          0000000127900000000000000000000000     I                               00000070890000000000000     
DET12710638390AGTDSTI ISSUE               TKTT70992071989240919FFVVUSD200000005810000000000000000000000000000000000               0000000000000          0000000127900000000000000000000000     I                               00000070890000000000000     
DET12710638390AGTDSTI ISSUE               TKTT70992071999240919FFVVUSD200000005810000000000000000000000000000000000               0000000000000          0000000127900000000000000000000000     I                               00000070890000000000000     
DET12710638390AGTDSTI ISSUE               TKTT70992072009240919FFVVUSD200000005810000000000000000000000000000000000               0000000000000          0000000127900000000000000000000000     I                               00000070890000000000000     
